:020000040800F2
:10000000980800204501000805130008B1120008F7
:1000100001130008271000083B1F00080000000023
:100020000000000000000000000000005916000859
:10003000C510000800000000F91300085918000856
:100040005F0100085F0100085F0100085F01000810
:100050005F0100085F010008C91000085F01000887
:100060005F0100085F0100085F0100085F010008F0
:100070005F0100085F0100085F0100085F010008E0
:100080005F0100085F0100085F0100085F010008D0
:100090005F0100085F0100085F0100085F010008C0
:1000A0005F0100085F0100085F0100085F010008B0
:1000B000BD1800085F0100085F0100085F0100082B
:1000C0005F0100085F0100085F0100085F01000890
:1000D0005F010008AD1C0008E11C00085F0100087A
:1000E0005F0100085F0100085F0100085F01000870
:1000F0005F0100085F0100085F0100085F01000860
:100100005F0100085F0100085F0100085F0100084F
:100110005F0100085F01000801190008511900087B
:100120005F0100085F0100085F0100085F0100082F
:10013000DFF80CD000F036FC00480047A92D00087D
:10014000980800200648804706480047FEE7FEE77B
:10015000FEE7FEE7FEE7FEE7FEE7FEE7FEE7FEE777
:100160005D1800083101000840EA01039B0703D035
:1001700009E008C9121F08C0042AFAD203E011F8E6
:10018000013B00F8013B521EF9D27047D2B201E0A8
:1001900000F8012B491EFBD270470022F6E710B58C
:1001A00013460A4604461946FFF7F0FF204610BDE5
:1001B0000FB400B58DB010A909900B9000914FF0CD
:1001C000FF300A9000200C900548069005480790E3
:1001D0006A4609A80F9900F099FA0DB05DF814FB72
:1001E00029070008470700082DE9FF5F1D464FF06B
:1001F000FF3BD5E9014691465F464FF00008A969EB
:100200007F1C01988847296A824688470028F6D1D2
:10021000BAF1FF3F0CD024F4C064002E19DD600653
:1002200014D5BAF12B0F09D0BAF12D0F0ED103E07E
:10023000584604B0BDE8F09F44F48064A9697F1C6F
:1002400001988847761E8246002E02DDBAF1300FF3
:1002500003D0B9F1000F26D032E0A969761E44F42C
:1002600000747F1C019888478246002E05DDBAF194
:10027000780F06D0BAF1580F03D0B9F1000F10D0A3
:100280001EE0B9F1000F02D0B9F1100F18D1A96921
:10029000761E24F400747F1C019888478246102043
:1002A00002E0082000E00A20814609E008FB090876
:1002B000A969761E44F400747F1C01988847824621
:1002C000002E05DD4946504600F00CFA0028EDDA14
:1002D000E96901988847A00502D46FF00100A8E7FA
:1002E000E00725D1600613D5600502D5C8F10000EE
:1002F00000E0404629680A1D2A600968220501D5E8
:10030000087015E0220701D5088011E008600FE0B1
:100310002868011D29600068210502D580F8008049
:1003200006E0210702D5A0F8008001E0C0F80080B7
:1003300038467EE72DE9FE4F804681EA0300C00F74
:100340000C46009021F0004123F00045B8EB02007C
:10035000A94105D24046214690461C460B4602461E
:1003600023F00040104347D0270DC7F30A00C3F322
:100370000A510290401A019040286BDAC3F313002F
:1003800040F4801B0098924620B10023D2EB030A70
:1003900063EB0B0B01985946C0F14002504600F048
:1003A00080F906460D4650465946019A00F088F9F4
:1003B00010EB08006141002487EA115284EAE773D8
:1003C0001A4340D0009A62B3019A012A4FEA0752B9
:1003D00015DC001B61EB02014FF0004202EA0752FC
:1003E000CDE90042001C41F5801132462B4600F059
:1003F00001FA03B0BDE8F08F40462146F9E7001B43
:1004000061EB0201001C41F5801300185B412018CC
:10041000A2F5001747EB030140EAD570B6196D410C
:1004200011E06D084FEA360645EAC0754FEA0752FB
:10043000001B61EB0201001C41F5801149084FEAE5
:1004400030000019514132462B4603B0BDE8F04F51
:1004500000F0C1B90098012240000023D0EB020255
:1004600063EBE073009821464FEAE074B8EB0000BC
:1004700061EB0401E9E783F000435BE781F00041B1
:1004800058E72DE9F04D81EA030404F0004B21F018
:10049000004514464FF0000A23F0004150EA0502DF
:1004A00020D054EA01021DD0C5F30A570246C5F315
:1004B0001303C1F31300C1F30A5640F4801543F44B
:1004C0008013A7EB0608101BD64608F2FD3873EB25
:1004D000050002D308F1010801E092185B41B8F170
:1004E000000F03DA00200146BDE8F08D00204FF434
:1004F0008011064684460EE0171B73EB050705D3F3
:10050000121B63EB050306434CEA010C49084FEA52
:10051000300092185B4150EA0107EDD152EA030026
:1005200012D082EA040083EA0501084305D0101BBB
:10053000AB4106D20122002306E000224FF0004327
:1005400002E06FF0010253101AEB06004CEB085169
:1005500010EB0A0041EB0B01BDE8F04D00F03BB998
:1005600096230022114600F008B90EB540F233413F
:1005700002910021CDE900110A460B4600F03AF93C
:1005800003B000BD00F0004230F000400AD0C10DC1
:1005900001F56071C0F3160042EA0151C20840073C
:1005A00011437047002001467047000030B5041E1B
:1005B00071F1000404DB4FF00044404264EB0101A0
:1005C000141E73F1000405DB1C464FF00043524239
:1005D00063EB0403994208BF904230BD01F0004331
:1005E00030B421F0004150EA010206D00A0DA2F514
:1005F0006072C1F31301002A02DC30BC0020704796
:10060000440F44EAC104C100E01830BC00EBC25002
:1006100000F0AAB830B50B46014600202022012484
:1006200009E021FA02F59D4205D303FA02F5491BC0
:1006300004FA02F52844151EA2F10102F1DC30BDD6
:100640002DE9F05F0546002092469B468846064607
:10065000814640241BE0284641464746224600F09A
:10066000B3F953465A46C01A914110D31146184661
:10067000224600F016F82D1A67EB01084F46224675
:100680000120002100F00DF817EB00094E41201E5B
:10069000A4F10104DFDC484631462A464346BDE862
:1006A000F09F202A04DB203A00FA02F10020704774
:1006B0009140C2F1200320FA03F3194390407047A0
:1006C000202A06DBCB17203A41FA02F043EAE07316
:1006D00006E041FA02F3D040C2F120029140084303
:1006E000194670473A2800D2303820F02002412ABB
:1006F00001D3A2F13700884201D34FF0FF30704799
:10070000026811441378016018467047D1600449AB
:1007100051610449116200211161114600F06AB96A
:1007200001070008E9090008426842B1016811F8B0
:10073000013B23B1521EC0E9001218467047012147
:10074000C160881E704742685AB1C368016843B9E6
:1007500083688B4205D0491E521CC0E9001200205C
:1007600070474FF0FF3070470029A8BF7047401C0A
:10077000490008BF20F00100704710B4B0FA80FCB7
:1007800000FA0CF050EA010404BF10BC704749B1F4
:10079000CCF1200421FA04F411FA0CF118BF012164
:1007A00021430843A3EB0C01CB1D4FEA00614FEA44
:1007B000102042BF002010BC704700EBC350104413
:1007C0000029A4BF10BC7047401C490008BF20F09E
:1007D000010010BC704710B5141E73F1000408DA54
:1007E000401C41F1000192185B411A4301D120F0F5
:1007F000010010BD2DE9F04D92469B4611B1B1FAB2
:1008000081F202E0B0FA80F220329046FFF749FF11
:1008100004460F4640EA0A0041EA0B0153465A4695
:10082000084313D0114653EA010019D0C8F1400221
:10083000504600F0C9F805460E4650465946424615
:10084000FFF72FFF084305D0012004E0204639467A
:10085000BDE8F08D0020054346EAE0762C4337439F
:100860000A986305E40AA0EB08000022FD0A44EAA6
:1008700047540A3002D500200146E9E70105101966
:100880006941DDE9084500196941BDE8F04DA2E77D
:100890002DE9FE4F81EA030404F0004421F00041F9
:1008A00000944FF0000B23F0004350EA01045ED0A7
:1008B00052EA03045BD0C3F30A54C1F30A552C4433
:1008C000A4F2F3340194A0FB0254C1F3130141F4E8
:1008D0008011C3F3130343F4801301FB024400FBB4
:1008E000034E840A970A44EA815447EA8357A4FBDB
:1008F000076802958D0A05FB07854FEA932C04FBD8
:100900000C542705029D4FEA065847EA1637B5EB07
:1009100008056EEB070C870E920E47EA811742EA34
:100920008312A7FB0201B6EB0B0164EB00042B0D55
:1009300043EA0C335E1844EB1C50DA465146E7FBA1
:100940000201C5F313044FEA0B3343EA14534FEA91
:100950000432019C43EA0603A4F10C040294009CB7
:10096000CDE900B4FFF746FF03B0BDE8F08F0020EB
:100970000146F9E7C1F30A52C1F3130140F2FF3314
:1009800041F480119A4202DA00200146704740F299
:1009900033439A42A2F2334202DC524200F014B8CE
:1009A000FFF77FBE064C074D06E0E06840F001030C
:1009B00094E8070098471034AC42F6D3FFF7BCFB2D
:1009C00090300008B0300008202A04DB203A21FAD9
:1009D00002F00021704721FA02F3D040C2F1200258
:1009E0009140084319467047C0B24FF4F05100F0EF
:1009F00097B900002DE9F34F8BB04FF0000801F1DB
:100A00000C000C464FF0010B46460DF1080A019010
:100A10006269012101989047051E2DD0252D2CD00B
:100A2000216A8847C0B16269012101989047216A13
:100A300088470028F7D1411E62690198904700E07D
:100A4000761CA1690B988847216A88470028F7D14E
:100A5000E1690B988847DBE7A1690B98884707464F
:100A6000A84201D1761CD3E7E1690B9888477F1C27
:100A700002D1B8F1000F6FD046E1002762693D4610
:100A80003946019890472A2804D1626901210198CA
:100A900090470125DFF8849262690121019890470F
:100AA000A0F130010A290AD24F45E5DC07EB8701A6
:100AB00000EB4107303FDFD445F01005ECE7E906D5
:100AC00001D46FF000476C280AD04C2814D0682855
:100AD00015D06A280DD074281CD07A281AD01DE0B1
:100AE00062690121019890476C2802D045F0040505
:100AF00014E045F002050DE045F020050AE06269CA
:100B0000012101989047682802D045F0080505E0CA
:100B100045F400656269012101989047C4E90157D5
:100B200065283DD019DC58287AD00CDC452837D010
:100B300004DC252826D0412831D131E046282FD0A9
:100B400047282CD12CE05B2877D0612828D0632857
:100B50007CD0642823D15AE0D0E06F2848D008DC4C
:100B600066281DD067281BD0692821D06E2816D191
:100B700027E0702845D0732868D0752847D078289A
:100B80000DD14DE0A1690B988847054625283FF413
:100B900069AFE1690B9888476D1C3FF46AAFB3E019
:100BA00023466A466FF001000B99AFF300809EE088
:100BB00045F040006060A80723464FF0000236D49D
:100BC0003EE0E8077FF447AF2068011D2160006820
:100BD000290501D506701BE7290701D5068017E70F
:100BE000A90703D5F117C0E9006111E706600FE717
:100BF00045F040006060A80723464FF0080216D475
:100C00001EE040F60E0125EA0100606016E045F0A6
:100C100040006060A80723464FF00A0207D40FE0A7
:100C200045F040006060A80708D5234610226FF009
:100C300001000B99AFF3008059E007E02346102232
:100C40006FF001000B99FFF7CFFA50E04FF0000969
:100C50004F464B46632802D05B2806D040E0E806AA
:100C600001D40120A06001273AE0626901210198C6
:100C700090475E2805D14FF0010962694946019805
:100C80009047216939B900210A46534643F821208B
:100C9000491C0829FADBB0B3216969B9C11700EB17
:100CA000D16253110AEB830122F01F02821A012044
:100CB0000B68904003430B606269012101989047E3
:100CC0005D28E8D1B9F1000F09D00020514651F854
:100CD0002020D24341F82020401C0828F7DB02AB3B
:100CE000224600976FF001000B99AFF300800028B7
:100CF0000CDA401C08D1BBF1000F05D04FF0FF30DB
:100D00000DB0BDE8F08FFFE74046F9E7E90701D1F4
:100D100008F1010806444FF0000B79E6CCCCCC0C6E
:100D20007F2801D9002208E0064A02EB5002C007E2
:100D3000127800D1120902F00F0201209040084001
:100D400070470000B02F000821B1826842F0010214
:100D5000826003E0826822F0010282607047000036
:100D600000B591B0012140F2112000F073FB012188
:100D7000084600F04FFB4FF4004000F03FFB03201B
:100D8000ADF8400000208DF8430010A9404800F065
:100D9000F7F90420ADF8400000208DF8430010A9B9
:100DA0003B4800F0EDF92020ADF8400000208DF820
:100DB000430010A9364800F0E3F900200B90012011
:100DC0008DF830008DF831004FF460200D90002038
:100DD0000E9004208DF83C000BA92E4800F08AF8F4
:100DE000072301220A212B4800F0ACF80723022236
:100DF0000B21284800F0A6F8072303220C212548E0
:100E000000F0A0F8072304220F21224800F09AF8EE
:100E100001212048FFF798FF1E4800F0EFF800BFBF
:100E20001C4800F052F80028FAD11A4800F0F6F8F1
:100E300000BF184800F03FF80028FAD101211548FA
:100E400000F02EF813484C30009013480190002019
:100E50000290C8200390002004908020059040005C
:100E60000690800007902020089000020990002042
:100E70000A906946094800F007F90121074800F087
:100E8000F7F80121034800F0BEF811B000BD0000E2
:100E900000100140002401404800002008000240EA
:100EA00021B1826842F48072826003E0826822F499
:100EB000807282607047014600208A6802F0040256
:100EC0000AB1012000E000207047014600208A6836
:100ED00002F008020AB1012000E00020704710B5BE
:100EE000032001F05FFD10BD10B5022001F05AFD96
:100EF00010BD000030B502460020002350680F4CA2
:100F000020400D790C6844EA052420435060906825
:100F10000B4C2040D1E902542C434D7944EA45045E
:100F200020439060D06A20F470000C7C641EE4B210
:100F3000234340EA0350D06230BD0000FFFEF0FFC3
:100F4000FDF7F1FFF0B504460D4600200021092D04
:100F500011DDE068A5F10A0606EB4607072606FA4A
:100F600007F18843A5F10A0606EB460603FA06F1E7
:100F70000843E0600CE0206905EB4507072606FA08
:100F800007F1884305EB450603FA06F108432061A3
:100F9000072A0FDA606B561E06EB86071F2606FA35
:100FA00007F18843561E06EB860605FA06F108434C
:100FB000606322E00D2A0FDA206BD61F06EB86074E
:100FC0001F2606FA07F18843D61F06EB860605FAA8
:100FD00006F10843206310E0E06AA2F10D0606EB7B
:100FE00086071F2606FA07F18843A2F10D0606EBD5
:100FF000860605FA06F10843E062F0BD816841F01B
:1010000008018160704721B1826842F4A0028260C9
:1010100003E0826822F4A00282607047816841F098
:1010200004018160704700BFFEE7000008B54FF47F
:101030008070ADF8000048208DF803006946024832
:1010400000F09EF808BD00000008014008B54FF40C
:101050008070ADF8000010208DF8030003208DF89B
:1010600002006946014800F08BF808BD0008014005
:1010700021B1026842F00102026004E002684FF60A
:10108000FE731A400260704710B50022026847F6EE
:10109000F0739A430C6A8B6823430C6923434C69B1
:1010A00023438C692343CC6923434C6A23438C6AD2
:1010B00023431A430260CB6843600B6883604B682C
:1010C000C36010BD7047000010B5012000F01AF891
:1010D00028B105A000F0E4FF022001F00DFD012081
:1010E00000F00AF810BD000077696669B3F5CABC64
:1010F000BBAFA3A1000000000149086070470000D9
:1011000014040140014600200022074B1B6803EA3B
:101110000102054B14331B680B4013B10AB10120C7
:1011200000E00020704700000004014010B50446B4
:10113000012C04D12021044800F0B6F803E020215E
:10114000014800F0B3F810BD000C014008B50121C2
:10115000082000F07FF910208DF803002020ADF862
:10116000000001208DF802006946044800F008F8EC
:101170002021024800F09AF808BD0000000C014050
:101180002DE9F0410246002500260020002300241E
:10119000002791F803C00CF00F0591F803C00CF084
:1011A000100CBCF1000F03D091F802C04CEA050509
:1011B00091F800C0BCF1000F31D0146800202BE082
:1011C0004FF0010C0CFA00F3B1F800C00CEA030672
:1011D0009E4220D183004FF00F0C0CFA03F7BC4362
:1011E00005FA03FC4CEA040491F803C0BCF1280F93
:1011F00006D14FF0010C0CFA00FCC2F814C00AE052
:1012000091F803C0BCF1480F05D14FF0010C0CFA66
:1012100000FCC2F810C0401C0828D1D31460B1F8FB
:1012200000C0BCF1FF0F34DD546800202EE000F157
:10123000080C4FF0010808FA0CF3B1F800C00CEAF2
:1012400003069E4221D183004FF00F0C0CFA03F7E6
:10125000BC4305FA03FC4CEA040491F803C0BCF15A
:10126000280F05D100F1080C08FA0CF8C2F8148018
:1012700091F803C0BCF1480F07D100F1080C4FF002
:10128000010808FA0CF8C2F81080401C0828CED3D8
:101290005460BDE8F0810246002093680B400BB11A
:1012A000012000E0002070474161704701617047F4
:1012B00000BFFEE738B505460C460121102000F0BE
:1012C000C9F8ADF8005001208DF8020010208DF80B
:1012D000030069460948FFF753FF29460748FFF70F
:1012E000E5FF012C03D129460448FFF7DDFF1CB9B7
:1012F00029460248FFF7DAFF38BD00000010014020
:1013000000BFFEE77047000070B5002100230F22E8
:10131000C47804B3154C246804F4E064C4F5E064B4
:10132000210AC1F10403CA40447804FA03F1847825
:101330001440214309010E4C0678A155047804F0AD
:101340001F050124AC4005786D11AD0005F1E025C5
:10135000C5F8004109E0047804F01F050124AC4001
:10136000044D0678761145F8264070BD0CED00E07E
:1013700000E400E080E100E002490143024A11601C
:10138000704700000000FA050CED00E010B50446BF
:1013900004F0010020B10121880200F039FE04E0D0
:1013A00000214FF4806000F033FE04F0020020B111
:1013B0000121C80200F02CFE04E000214FF400607F
:1013C00000F026FE04F0040020B10121080300F023
:1013D0001FFE04E000214FF4805000F019FE04F0DD
:1013E000080020B10121042000F012FE03E00021DA
:1013F000042000F00DFE10BD7047000001460020E3
:10140000034A506820F44040084350607047000091
:101410000010024029B1064A52690243044B5A6146
:1014200004E0034A52698243014B5A61704700004D
:101430000010024029B1064AD2690243044BDA6126
:1014400004E0034AD2698243014BDA61704700002D
:101450000010024029B1064A92690243044B9A6186
:1014600004E0034A92698243014B9A61704700008D
:101470000010024030B500210022002400232D4D31
:101480006D6805F00C0121B1042905D0082923D18C
:1014900005E0294D056022E0274D05601FE0254D40
:1014A0006D6805F47012234D6D6805F480340225D3
:1014B00005EB92421CB9214D554305600BE01D4DD3
:1014C0006D6805F400351DB11C4D5543056002E003
:1014D000194D5543056002E0174D056000BF00BF80
:1014E000144D6D6805F0F0010909154D6B5C056838
:1014F000DD4045600F4D6D6805F4E061090A104D4F
:101500006B5C4568DD4085600A4D6D6805F460518F
:10151000C90A0B4D6B5C4568DD40C560054D6D68C3
:1015200005F44041890B074D6B5CC568B5FBF3F5CD
:10153000056130BD0010024000127A0000093D0034
:10154000220000203200002070B50025002427E092
:1015500000BF4FF480711448FFF79DFE0028F8D0BB
:10156000282000F0E1F84FF480710F48FFF793FE58
:1015700001280ED100BF4FF480710B48FFF78BFE9E
:101580000128F8D0C4F1070101208840C0B205430A
:1015900004E0C4F10701012088408543601CC4B207
:1015A000082CD5DB284670BD0008014010B5044664
:1015B000FFF74CFD4FF480712648FFF775FE1220AF
:1015C00000F06CF84FF480712248FFF76FFE1E2088
:1015D00000F0AAF8FFF72AFD4FF480711D48FFF7CD
:1015E0005AFE88BB00BF4FF480711A48FFF753FEC4
:1015F0000028F8D000BF4FF480711648FFF74BFE6B
:101600000128F8D0FFF7A0FF2070FFF79DFF607062
:10161000FFF79AFFA070FFF797FFE070FFF794FFC6
:101620002071FFF713FD4FF480710A48FFF73EFE6B
:10163000207861780844A1780844E1780844217949
:10164000884202D1012010BD01E00020FBE700200C
:10165000F9E7000000080140704700004FF0E0216A
:10166000096921F005014FF0E0221161C21700EB7A
:101670005272C2F3C702074B1A701946097801EB80
:101680004102C2EBC1114FF6FF7202EAC101024AE8
:10169000118070470A0000200C00002001461CE069
:1016A000204A12884FF4E9635A434FF0E0235A610D
:1016B00000229A611A46126942F001021A6100BFC3
:1016C0004FF0E022106900F001021AB100F48032FC
:1016D000002AF5D0A1F5E96291B2B1F5E96FDFDC3E
:1016E000104A12884A434FF0E0235A6100229A615F
:1016F0001A46126942F001021A6100BF4FF0E0225F
:10170000106900F001021AB100F48032002AF5D00D
:101710004FF0E022126922F001024FF0E0231A613B
:10172000704700000C0000200146104A12784A431E
:101730004FF0E0235A6100229A611A46126942F082
:1017400001021A6100BF4FF0E022106900F00102AF
:101750001AB100F48032002AF5D04FF0E02212696D
:1017600022F001024FF0E0231A6170470A000020C6
:1017700010B500F001F810BD0CB5002001900090EC
:101780003348006840F480303149086000BF304879
:10179000006800F4003000900198401C019000980F
:1017A00018B90198B0F5A06FF1D12948006800F48C
:1017B000003010B10120009001E00020009000985E
:1017C000012843D12348006840F0100021490860F7
:1017D0000846006820F0030008600846006840F0F2
:1017E000020008601A484068194948600846406885
:1017F00048600846406840F4806048600846406899
:1018000020F47C1048600846406840F4E8104860C6
:101810000846006840F08070086000BF0C4800680F
:1018200000F000700028F9D00948406820F003005B
:10183000074948600846406840F00200486000BF21
:101840000348406800F00C000828F9D10CBD0000E6
:1018500000100240002002407047000010B51348FD
:10186000006840F0010011490860084640681049CE
:1018700008400E494860084600680E4908400B4978
:1018800008600846006820F4802008600846406828
:1018900020F4FE0048604FF41F008860FFF768FFE7
:1018A0004FF000600449086010BD000000100240C5
:1018B0000000FFF8FFFFF6FE08ED00E010B5012183
:1018C000880700F0C6F8C0B10C48007848B901217B
:1018D0000802FFF7EFFC09480078401C0749087030
:1018E00007E000214FF48070FFF7E4FC002003497B
:1018F00008700121880700F09DF810BD210000202C
:1019000010B501210B4800F0A4F888B1FFF7E7FA01
:101910000446214608A000F0C3FBFFF7E5FA0446A1
:10192000214608A000F0BCFB0121024800F082F82B
:1019300010BD000000100040616C636F686F6C3A6E
:1019400025640A00736D6F6B653A25640A00000018
:1019500010B501211B4800F07CF888B31A490C88A7
:10196000E11704EB5171C910A4EBC101174A505C97
:10197000FFF70CFD1648008813490988884205DDE9
:1019800011480088401C1049088015E01048008864
:101990000D490988884205DA0B480088401E0A492B
:1019A000088009E00A48008807490988884203D16D
:1019B0000021044800F041F80121024800F03AF803
:1019C00010BD00000014004018000020100000208E
:1019D0001A0000207FB505460C4601212020FFF7A4
:1019E00029FDADF80450ADF800400020ADF8060028
:1019F000ADF8020069460E4800F048F80122114691
:101A00000B4800F037F80121094800F016F837209C
:101A10008DF80C0000208DF80D0002208DF80E00CE
:101A200001208DF80F0003A8FFF76EFC7FBD0000BA
:101A300000140040CA430282704721B1028842F07C
:101A40000102028004E002884FF6FE731A40028011
:101A5000704730B50246002000230024158A05EAAD
:101A60000103958905EA010413B10CB1012000E0DE
:101A7000002030BD1AB183890B43838102E0838942
:101A80008B43838170478184704700000022028865
:101A90001D4B98420ED01D4B98420BD0B0F1804F99
:101AA00008D01B4B984205D01A4B984202D01A4BD3
:101AB000984204D14FF68F731A404B881A43174B44
:101AC000984207D0164B984204D04FF6FF431A4075
:101AD000CB881A4302808B8883850B8803850A4B49
:101AE00098420BD0094B984208D00E4B984205D033
:101AF0000D4B984202D00D4B984201D10B7A0386D0
:101B00000123838270470000002C01400034014013
:101B10000004004000080040000C0040001000409D
:101B200000140040004001400044014000480140D2
:101B300000B587B0012144F20500FFF78BFC4FF49C
:101B40000070ADF8180018208DF81B0003208DF8E8
:101B50001A0006A92048FFF713FB4FF48060ADF888
:101B6000180004208DF81B0006A91B48FFF708FB8E
:101B70004FF4E13002900020ADF80C00ADF80E00FB
:101B8000ADF810000C20ADF812000020ADF81400E4
:101B900002A9124800F05CF925208DF8040000200D
:101BA0008DF8050002208DF8060001208DF8070051
:101BB00001A8FFF7A9FB4021084800F0C9F801225D
:101BC00040F22551054800F01EF90121034800F0BC
:101BD000D7F807B000BD0000000801400038014000
:101BE00000B587B001214804FFF724FC0121084615
:101BF000FFF730FC0420ADF8180018208DF81B000A
:101C000003208DF81A0006A92448FFF7B9FA082026
:101C1000ADF8180004208DF81B0006A91F48FFF737
:101C2000AFFA4FF4E13002900020ADF80C00ADF8AF
:101C30000E00ADF810000C20ADF812000020ADF839
:101C4000140002A9164800F003F926208DF80400BC
:101C500001208DF8050002208DF8060001208DF886
:101C6000070001A8FFF750FB012240F225510C4864
:101C700000F0C9F801210A4800F082F841F61F413E
:101C800040F2E730FFF7A6FE002006490880002159
:101C90000548FFF7D2FE07B000BD00000008014074
:101CA000004400400E0000200014004010B540F237
:101CB0002551094800F07DF860B1074800F034F97B
:101CC00004462146054800F034F940F22551024807
:101CD00000F047F810BD000000380140004400400B
:101CE00010B540F22551164800F063F8F8B11448D9
:101CF00000F01AF9C4B21348008800F40040B0B9EB
:101D000010480088B0F5967F12DA00210E48FFF7E0
:101D1000BAFE0C48008818B901210B48FFF78DFE68
:101D200008490888411C074A118008490C5405E0FD
:101D30000448008840F400400249088010BD0000BB
:101D4000004400400E00002000140040D801002094
:101D500001F40072B2F5007F00D100BFCA430280D7
:101D6000704710B50022002340F66A14A14200D14A
:101D700000BF0A1201249440A3B2DC43048010BDCA
:101D800021B1828942F40052828104E082894DF6B9
:101D9000FF731A408281704702460020B1F5007F30
:101DA00000D100BF13880B400BB1012000E00020E0
:101DB000704770B50246002400230025002040F63D
:101DC0006A16B14200D100BFC1F3421501F01F03F2
:101DD000012606FA03F3012D02D19689334006E06D
:101DE000022D02D1168A334001E0968A33400C124C
:101DF000012606FA04F41688344013B10CB1012010
:101E000000E0002070BDF0B5034600240026002548
:101E1000002040F66A17B94200D100BF1846C1F34E
:101E2000421401F01F06012707FA06F5012C01D123
:101E30000C3004E0022C01D1103000E014301AB153
:101E400007682F43076002E00768AF430760F0BDF3
:101E50002DE9F04786B005460E460024A24600BF95
:101E6000A1460027B08900B100BF2F462C8A4CF64E
:101E7000FF700440F08804432C82AC894EF6F310C6
:101E80000440B08831890843718908430443AC8118
:101E9000AC8A4FF6FF400440B0890443AC8201A8ED
:101EA000FFF7E8FA1F48874202D1DDF810A001E0F1
:101EB000DDF80CA0A88900F4004040B10AEBCA008C
:101EC00000EB0A1031684900B0FBF1F807E00AEBBB
:101ED000CA0000EB0A1031688900B0FBF1F86420F9
:101EE000B8FBF0F004012009642101FB1089A889E6
:101EF00000F4004040B1322000EBC900B0FBF1F02B
:101F000000F00700044308E0322000EB09106421D0
:101F1000B0FBF1F000F00F0004432C8106B0BDE8E7
:101F2000F08700000038014001468888C0F30800AF
:101F30007047C1F308028280704700BFFEE70000CF
:101F400000B585B001213020FFF784FA10208DF80C
:101F500013000420ADF8100001208DF8120004A930
:101F60002148FFF70DF94FF48050ADF8100004A997
:101F70001E48FFF705F94FF40060ADF8100004A902
:101F80001A48FFF7FDF84FF48060ADF8100004A97F
:101F90001648FFF7F5F801212020FFF74BFA09203A
:101FA000ADF8080041F61F40ADF8040001A9104843
:101FB000FFF76CFD012211460D48FFF75BFD37204E
:101FC0008DF8000001208DF8030003208DF801003A
:101FD00002208DF802006846FFF796F900210448B8
:101FE000FFF72BFD05B000BD0014014000100140BB
:101FF0000014004010B50446200103490880012167
:102000000248FFF71AFD10BD1A000020001400401E
:1020100070B504460D46012D1ED1042C04D1214675
:102020001D48FFF743F935E0B4F5805F04D1214640
:102030001A48FFF73BF92DE0B4F5006F04D12146B3
:102040001648FFF733F925E0B4F5806F22D1214619
:102050001248FFF72BF91DE0042C04D121460E484D
:10206000FFF722F916E0B4F5805F04D121460B4852
:10207000FFF71AF90EE0B4F5006F04D121460748C6
:10208000FFF712F906E0B4F5806F03D1214603484B
:10209000FFF70AF970BD0000001401400010014074
:1020A0000FB4054B10B503A9044A029800F0DEF8FE
:1020B00010BC5DF814FB0000ED290008440000206E
:1020C0000FB4084B10B504A902AA039800F0CEF88B
:1020D000044602A9002000F060FC204610BC5DF818
:1020E00014FB00009B29000802E008C8121F08C169
:1020F000002AFAD170477047002001E001C1121F89
:10210000002AFBD1704700002DE9FF5FDDE90220C6
:10211000010DDDF838B0024318D044F61050A1F29A
:10212000FF3141430D140F98012820D0A5EB0B007F
:10213000401C5FEA000A4FF00004474EDFF81C9194
:10214000A046504616D5CAF1000728E00F98012492
:1021500043A2012808D0002100980F9BC0E900216C
:10216000C0E90243BDE8FF9F6FEA0B01F4E7CBF142
:102170000000DEE7074612E0F80707D022463346A4
:1021800040464946FEF784FB804689462246334650
:1021900010461946FEF77CFB04460E467F10002FC2
:1021A000EAD1DDE90201BAF1000F42464B4602DAFC
:1021B000FEF76EFB01E0FEF764F904460E460022CE
:1021C000284BFEF7F3F903D84FF0FF30014607E044
:1021D0000022254B20463146FEF7ACF8FEF7CAFB3D
:1021E000102409E0002C0ADB0A220023FEF728FA5B
:1021F000019B30321A55641E50EA0102F2D1641C70
:10220000019AC4F1110314440F9A012A03D0012248
:1022100008430DD10AE0084304D000204FF0110B11
:102220000F9080E7A3EB0B056D1E0DE05B4504DD11
:102230004FF0000205F1010504E003DA4FF000025F
:10224000A5F10105002AECD000980F99C0E90231F0
:10225000C0E9004586E70000000024400000F03F90
:10226000300000000000F0430000E03F2DE9FF4F88
:1022700095B09B468946064600250FE2252877D172
:1022800000242746F84A0121059400E0044316F88B
:10229000013F203B01FA03F01042F7D130782A28A1
:1022A00011D06FF02F033078A0F13002092A16D830
:1022B000059A44F0020402EB820203EB420210444E
:1022C000761C0590EFE759F8042B0592002A03DAF3
:1022D000504244F40054059044F00204761C3078D7
:1022E0002E2816D116F8010F44F004042A280DD028
:1022F0006FF02F023078A0F13003092B09D807EBDB
:10230000870302EB4303C718761CF3E759F8047BF5
:10231000761C30786C280FD006DC4C2817D0682843
:102320000DD06A2814D104E0742810D07A280FD177
:102330000DE044F400140AE044F4801401E044F495
:1023400040147278824202D104F58014761C761C07
:10235000307866280BD013DC582877D009DC0028A9
:1023600075D04528F6D04628F4D047281AD19DE1EB
:1023700018E0632835D0642879D0652812D195E11A
:10238000702873D008DC6728F1D069286FD06E28D8
:102390000DD06F2806D1B5E073282CD0752875D0E4
:1023A000782874D05A46179990476D1C75E1C4F38C
:1023B0000250022809D003280DD0D9F800100428B3
:1023C0000DD00D6009F1040967E1D9F80010EA1792
:1023D000C1E90052F6E7D9F800100D80F2E70D7060
:1023E000F0E719F8041B8DF8001000208DF80100AB
:1023F000EA46012003E059F804AB4FF0FF306107D3
:102400004FF0000102D40DE008F101018846B94205
:102410000FDA8045F8DB1AF808100029F4D108E03B
:1024200008F1010188468142FADB1AF808100029F8
:10243000F6D105985B46A0EB080721463846179A67
:1024400000F094FA284400EB080507E04DE029E18C
:102450000DE01AF8010B5A4617999047B8F1010898
:10246000F7D25B4621463846179A13E142E00A222A
:102470000092C4F302524FF0000A022A08D059F821
:1024800004CB032A4FEAEC710AD00DE029E02AE0E0
:1024900009F1070121F00702F2E802C1914609E0C3
:1024A0000FFA8CFC4FEAEC71042A03D14FFA8CFC32
:1024B0004FEAEC71002907DA0A460021DCF1000C32
:1024C00061EB02012D2202E0220504D52B228DF8BA
:1024D0000420012203E0E20701D02022F7E7904622
:1024E00059E00A2102E010220DE010214FF0000A0D
:1024F00000910BE010224FF0000A44F0040408277A
:10250000009203E008224FF0000A0092C4F3025246
:10251000022A05D059F804CB0021032A08D009E08B
:1025200009F1070121F00702F2E802C1914605E036
:102530001FFA8CFC042A01D10CF0FF0C4FF00008AC
:10254000220728D5702806D0009B83F0100353EA99
:102550000A0305D00EE040228DF80420012208E095
:102560005CEA010206D030228DF804208DF80500C7
:1025700002229046009B83F0080353EA0A030AD123
:102580005CEA010201D1620705D530228DF80420F2
:102590004FF001087F1E582804D034A003900EA8E5
:1025A00002900DE036A0F9E753466046009AFEF728
:1025B00047F884460398825C0298401E029002709D
:1025C0005CEA0100F0D1029806A9081A00F1200A7D
:1025D000600702D524F4803400E00127574502DD6E
:1025E000A7EB0A0000E0002000EB0A01009005982C
:1025F0004144401A0590E00306D45B462146179AF1
:10260000059800F0B3F90544002706E001A85A46F2
:10261000C05D179990476D1C7F1C4745F6DBE003B2
:102620000CD55B462146179A059800F09FF90544A2
:1026300004E030205A46179990476D1C0099481EB7
:1026400000900029F5DC08E0029802995A460078CB
:10265000491C0291179990476D1CBAF10001AAF12B
:10266000010AF1DC65E10000092801003031323354
:1026700034353637383961626364656600000000BE
:1026800030313233343536373839414243444546A8
:102690000000000000F058F90544761C307800284E
:1026A0007FF4ECAD19B02846BDE8F08F620700D486
:1026B000062709F1070222F0070CFCE80223E14695
:1026C00003F000485FEA080C02D00FF2702C0DE016
:1026D0005FEA045C02D50FF2682C07E05FEAC47C75
:1026E00002D00FF2602C01E0AFF2700C4FF0FF3817
:1026F00023F00043CDF850C065280CD006DC4528F7
:1027000009D046281DD047283DD13DE0662818D085
:1027100067287ED138E00021112F01DB112000E075
:10272000781CCDE9000106A90EA8FFF7EDFCDDE954
:102730000F010E9A03910021009207F1010A049102
:102740004DE04FF000400097CDE9011006A90EA81A
:10275000FFF7DAFCDDE90F0203920E9B11990022CC
:10276000DDF80CA00093049211B9791C00EB010A6A
:10277000B7EB0A0004D4C0F1FF3007F1010A04905E
:10278000AAEB0700019044E0012F00DA01270021A5
:10279000112F01DD112000E03846CDE9000106A926
:1027A0000EA8FFF7B1FCDDE90F010E9A039100219D
:1027B00004910092BA4621070CD40399514500DADE
:1027C0008A46BAF1010F05DD009AAAF10101515CB8
:1027D000302908D0B84202DA10F1040F06DA0121DC
:1027E000CDE9011015E0AAF10101E9E7002805DCB7
:1027F000049901440491AAEB000102E0411C5145F7
:1028000000DD8A460499401A401C01904FF00040B8
:102810000290200704D40198504501DBCDF80480D4
:1028200000208DF84F0002980DF14F07B0F1004FD6
:1028300025D02B200E9002984FF0020800280CDAC9
:10284000404202902D200E9007E00A210298FDF7E9
:10285000E1FE3031029007F8011DB8F10001A8F146
:102860000108F2DC02980028EFD1791E0E9808705A
:10287000307800F0200040F0450007F8020D12A863
:10288000C01B00F107081498007800B1012000EB8C
:102890000A01019801EBE07105984144401A401E7D
:1028A0000590E00306D45B462146179A059800F090
:1028B0005DF805441498007818B15A461799904766
:1028C0006D1CE00324D55B462146179A059800F05D
:1028D0004DF805441CE00498002807DBDDE90301FE
:1028E000884203DD0098405C179901E01799302079
:1028F0005A469047049805F10105401C0490019840
:10290000401E019004D12E205A46179990476D1C05
:10291000BAF10001AAF1010ADDDC05E017F8010BAC
:102920005A46179990476D1CB8F10001A8F10108AB
:10293000F4DC5B462146179A0598ABE62D000000B3
:102940002B000000200000002DE9F0410446002586
:102950001E461746880404D405E039462020B047B7
:102960006D1C641EF9D52846BDE8F0812DE9F041C3
:10297000044600251E469046C80301D5302700E0D6
:102980002027880404D505E041463846B0476D1C31
:10299000641EF9D52846BDE8F0810A68531C0B6017
:1029A0001070704702460023002107E0074800EB43
:1029B000C10030F812000344481C81B23229F5DB13
:1029C0003220B3FBF0F080B27047000048000020D6
:1029D00001B581B000200090694601AA50780870C6
:1029E00010784870BDF800000CBD000070B50446BA
:1029F0000D46E1B20548FFF79CFA00BF802103486D
:102A0000FFF7CAF90028F9D0204670BD0038014010
:102A100001480068704700004000002010B50446DF
:102A20002CB907A0FFF73CFB4FF0FF3010BD002092
:102A300020606060FF20207060700020F6E70000DA
:102A40004552523A2067697A50726F746F636F6CA7
:102A500048656164496E69742068656164206973C2
:102A600020656D707479200A0000000010B50246E0
:102A70000024002302B109B9002010BD022303E0A5
:102A8000D05C2044C4B25B1C481E9842F8D8204653
:102A9000F3E7000070B504460D462CB90FA0FFF710
:102AA000FFFA4FF0FF3070BD26211248FDF775FB8D
:102AB0002A4621460F48801CFDF756FB0D48493831
:102AC000A0F86950012180F84A10FFF7A1FF0949D9
:102AD0004939C1F86B000020E5E700004552523A41
:102AE000206461746120697320656D707479200AB7
:102AF000000000004D03002030B587B005460024DB
:102B0000062D7CD2DFE805F003305F90BDEA01A816
:102B1000FFF784FF0B208DF808008B4890F84110D8
:102B2000D0F84100401C884AC2F84100C8B28DF874
:102B300009000520FFF74CFFADF80600092101A8A8
:102B4000FFF794FF8DF80C00092101A800F0EEF9C1
:102B50000446002C03DA21467CA0FFF7A1FA0921E4
:102B600001A8FFF797FFEAE004A8FFF757FF092045
:102B70008DF81400744890F84110D0F84100401CC2
:102B8000714AC2F84100C8B28DF815008DF818508E
:102B90000620FFF71DFFADF812000A2104A8FFF779
:102BA00065FF8DF819000A2104A800F0BFF904465A
:102BB000002C03DA214665A0FFF772FA0A2104A867
:102BC000FFF768FFBBE004A8FFF728FF09208DF896
:102BD00014005D4890F84110D0F84100401C5A4A5A
:102BE000C2F84100C8B28DF815008DF818500620C3
:102BF000FFF7EEFEADF812000A2104A800E09AE00B
:102C0000FFF734FF8DF819000A2104A800F08EF9AF
:102C10000446002C03DA21464CA0FFF741FA0A21B2
:102C200004A8FFF737FF8AE001A8FFF7F7FE13209B
:102C30008DF80800444890F84110D0F84100401C3D
:102C4000414AC2F84100C8B28DF809000520FFF7DB
:102C5000BFFEADF80600092101A8FFF707FF8DF8B8
:102C60000C00092101A800F061F90446002C03DAE8
:102C7000214636A0FFF714FA092101A8FFF70AFF41
:102C80005DE001A8FFF7CAFE15208DF808002E4868
:102C900090F84110D0F84100401C2B4AC2F8410086
:102CA000C8B28DF809000520FFF792FEADF80600C6
:102CB000092101A8FFF7DAFE8DF80C00092101A80F
:102CC00000F034F90446002C03DA21461FA0FFF778
:102CD000E7F9092101A8FFF7DDFE30E001A8FFF7C1
:102CE0009DFE29208DF80800174890F84110D0F873
:102CF0004100401C144AC2F84100C8B28DF80900D6
:102D00000520FFF765FEADF80600092101A8FFF7D1
:102D1000ADFE8DF80C00092101A800F007F904466A
:102D2000002C03DA214609A0FFF7BAF9092101A80E
:102D3000FFF7B0FE03E00CA0FFF7B2F900BF00BF41
:102D4000204607B030BD0000040300204552523A2F
:102D50002075617274207772697465206572726F74
:102D600072202564200A00004552523A20436667CB
:102D70004D6F6465206572726F72210A0000000059
:102D800010B54FF4E0710248FEF790FA10BD000054
:102D90000010014010B54FF4E0710248FEF784FACC
:102DA00010BD000000100140D4B04FF4A060FEF749
:102DB000E3FA4820FEF752FCFEF7BAFEFEF710FFDA
:102DC000FEF7C4F9FFF7BCF8FDF7CAFF42F2107036
:102DD000FEF764FC95E008AA4AA14F48FDF7E8F920
:102DE0004EA00899FFF75CF9089800F4004040B144
:102DF000089800F4804010B1FFF7CCFF01E0FFF726
:102E0000BFFF089800F4005000B100BF089800F41C
:102E1000006050B1089800F4806018B10120FEF7FE
:102E200085F902E00020FEF781F9089800F40070AF
:102E300018B10899C8B2FFF7DDF83948FEF7B6FBBC
:102E40003749C878FDF791FB07460022354BFDF75F
:102E500018FBCDE9040132498878FDF781FB07466C
:102E6000FDF790FBCDE90201DDE90423FDF762FAED
:102E7000CDE90601FDF7B2FB044629494878FDF784
:102E800074FB07460022274BFDF7FBFACDE904014E
:102E900023490878FDF764FB0746FDF773FBCDE98E
:102EA0000201DDE90423FDF745FACDE90601FDF74E
:102EB00095FB0546FEF718F80646FEF710F8814622
:102EC00040F6055A4FF47A6B2846FDF75BFB074640
:102ED00088462046FDF756FB02460B46CDE904AB7B
:102EE000CDE90269CDE90078CDE906010E4909A8CE
:102EF000FFF7E6F809A800F045F84FF47A70FEF7FE
:102F0000CDFB68E77B2022636D64223A2025642C88
:102F10002022666C00000000D801002025640A0011
:102F20000500002000002440F02F000870B5054681
:102F30000E4600240DB9601E70BD00241BE0295D03
:102F40000F48FEF7F6FF00BF80210D48FEF724FF73
:102F50000028F9D0022C0DD3285DFF280AD1552175
:102F60000748FEF7E6FF00BF80210548FEF714FF83
:102F70000028F9D0641CB442E1D33046DCE70000FD
:102F80000044004070B5044600250BE0615D074831
:102F9000FEF7CFFF00BF80210448FEF7FDFE0028AA
:102FA000F9D06D1C605D0028F0D170BD0044004078
:102FB000DDDDDDDDDCBBBBDDDDDDDDDDDDDDDDDD86
:102FC00098888888888888887777777777888888C6
:102FD000855555566666666666666666666888885E
:102FE0008333333222222222222222222228888D57
:102FF0007B2022666C6167223A2031302C202261CE
:10300000636374223A20223333222C202270737798
:1030100064223A202231222C20227265666C61677C
:10302000223A20342C2022636D64223A2031313040
:10303000383439373931312C202274656D70223A99
:103040002022252E3166222C202268756D223A20FE
:1030500022252E3166222C2022736D6F6B65223A59
:1030600020222564222C2022636F223A202225640C
:10307000222C2022636834223A20222564222C202C
:1030800022706D327035223A2022256422207D0084
:10309000B03000080000002048000000E8200008D0
:1030A000F83000084800002050080000F820000810
:1030B0000000000000000000000000000000000010
:1030C000080C0406020301090000000000000000D3
:1030D00000000000000001020304010203040607CF
:1030E00008090204060800000000000000000000BB
:0830F0000000000000000000D8
:0400000508000131BD
:00000001FF
